{
  "abi": [
    {
      "inputs": [
        {
          "internalType": "address",
          "name": "oldToken_",
          "type": "address"
        },
        {
          "internalType": "address",
          "name": "newToken_",
          "type": "address"
        }
      ],
      "stateMutability": "nonpayable",
      "type": "constructor"
    },
    {
      "inputs": [
        {
          "internalType": "uint256",
          "name": "amount_",
          "type": "uint256"
        }
      ],
      "name": "migrate",
      "outputs": [],
      "stateMutability": "nonpayable",
      "type": "function"
    },
    {
      "inputs": [
        {
          "internalType": "address",
          "name": "owner_",
          "type": "address"
        },
        {
          "internalType": "uint256",
          "name": "amount_",
          "type": "uint256"
        }
      ],
      "name": "migrate",
      "outputs": [],
      "stateMutability": "nonpayable",
      "type": "function"
    },
    {
      "inputs": [],
      "name": "newToken",
      "outputs": [
        {
          "internalType": "address",
          "name": "",
          "type": "address"
        }
      ],
      "stateMutability": "view",
      "type": "function"
    },
    {
      "inputs": [],
      "name": "oldToken",
      "outputs": [
        {
          "internalType": "address",
          "name": "",
          "type": "address"
        }
      ],
      "stateMutability": "view",
      "type": "function"
    }
  ],
  "bytecode": {
    "object": "0x60c060405234801561001057600080fd5b5060405161069a38038061069a83398101604081905261002f916101a2565b816001600160a01b031663313ce5676040518163ffffffff1660e01b815260040160206040518083038186803b15801561006857600080fd5b505afa15801561007c573d6000803e3d6000fd5b505050506040513d601f19601f820116820180604052508101906100a091906101d5565b60ff16816001600160a01b031663313ce5676040518163ffffffff1660e01b815260040160206040518083038186803b1580156100dc57600080fd5b505afa1580156100f0573d6000803e3d6000fd5b505050506040513d601f19601f8201168201806040525081019061011491906101d5565b60ff16146101685760405162461bcd60e51b815260206004820152601460248201527f4d3a433a444543494d414c5f4d49534d41544348000000000000000000000000604482015260640160405180910390fd5b6001600160601b0319606092831b811660a052911b166080526101ff565b80516001600160a01b038116811461019d57600080fd5b919050565b600080604083850312156101b557600080fd5b6101be83610186565b91506101cc60208401610186565b90509250929050565b6000602082840312156101e757600080fd5b815160ff811681146101f857600080fd5b9392505050565b60805160601c60a05160601c61046461023660003960008181607e015261013901526000818160c101526101b101526104646000f3fe608060405234801561001057600080fd5b506004361061004c5760003560e01c8063454b060814610051578063ad68ebf714610066578063b31c710a14610079578063c42bd05a146100bc575b600080fd5b61006461005f3660046103da565b6100e3565b005b610064610074366004610379565b6100f0565b6100a07f000000000000000000000000000000000000000000000000000000000000000081565b6040516001600160a01b03909116815260200160405180910390f35b6100a07f000000000000000000000000000000000000000000000000000000000000000081565b6100ed33826100f0565b50565b806101345760405162461bcd60e51b815260206004820152600f60248201526e134e934e96915493d7d05353d55395608a1b60448201526064015b60405180910390fd5b6101607f000000000000000000000000000000000000000000000000000000000000000083308461021d565b6101ac5760405162461bcd60e51b815260206004820152601860248201527f4d3a4d3a5452414e534645525f46524f4d5f4641494c45440000000000000000604482015260640161012b565b6101d77f00000000000000000000000000000000000000000000000000000000000000008383610294565b6102195760405162461bcd60e51b8152602060048201526013602482015272134e934e9514905394d1915497d19052531151606a1b604482015260640161012b565b5050565b6040516001600160a01b038085166024830152831660448201526064810182905260009061028b9086906323b872dd60e01b906084015b60408051601f198184030181529190526020810180516001600160e01b03166001600160e01b0319909316929092179091526102cf565b95945050505050565b6040516001600160a01b0383166024820152604481018290526000906102c790859063a9059cbb60e01b90606401610254565b949350505050565b60006001600160a01b0383163b6102e857506000610373565b6060836001600160a01b03168360405161030291906103f3565b6000604051808303816000865af19150503d806000811461033f576040519150601f19603f3d011682016040523d82523d6000602084013e610344565b606091505b50909250905081801561036f57508051158061036f57508080602001905181019061036f91906103b1565b9150505b92915050565b6000806040838503121561038c57600080fd5b82356001600160a01b03811681146103a357600080fd5b946020939093013593505050565b6000602082840312156103c357600080fd5b815180151581146103d357600080fd5b9392505050565b6000602082840312156103ec57600080fd5b5035919050565b6000825160005b8181101561041457602081860181015185830152016103fa565b81811115610423576000828501525b50919091019291505056fea2646970667358221220edf338a79736b47ea6b604c5b8ce4e9cd5f02a611803cd02eead9c138bd86e4464736f6c63430008070033",
    "linkReferences": {}
  },
  "methodIdentifiers": {
    "migrate(address,uint256)": "ad68ebf7",
    "migrate(uint256)": "454b0608",
    "newToken()": "c42bd05a",
    "oldToken()": "b31c710a"
  },
  "id": 0
}